{
    "_format": "hh-sol-artifact-1",
    "contractName": "PackageVerification",
    "sourceName": "contracts/Lock.sol",
    "abi": [
        {
            "anonymous": false,
            "inputs": [
                {
                    "indexed": true,
                    "internalType": "bytes32",
                    "name": "hashData",
                    "type": "bytes32"
                },
                {
                    "indexed": false,
                    "internalType": "string",
                    "name": "senderID",
                    "type": "string"
                },
                {
                    "indexed": false,
                    "internalType": "string",
                    "name": "recipientID",
                    "type": "string"
                },
                {
                    "indexed": false,
                    "internalType": "string",
                    "name": "aidType",
                    "type": "string"
                },
                {
                    "indexed": false,
                    "internalType": "uint256",
                    "name": "timestamp",
                    "type": "uint256"
                }
            ],
            "name": "PackageStored",
            "type": "event"
        },
        {
            "inputs": [
                {
                    "internalType": "bytes32",
                    "name": "hashData",
                    "type": "bytes32"
                }
            ],
            "name": "getPackageInfo",
            "outputs": [
                {
                    "internalType": "string",
                    "name": "",
                    "type": "string"
                },
                {
                    "internalType": "string",
                    "name": "",
                    "type": "string"
                },
                {
                    "internalType": "string",
                    "name": "",
                    "type": "string"
                },
                {
                    "internalType": "uint256",
                    "name": "",
                    "type": "uint256"
                }
            ],
            "stateMutability": "view",
            "type": "function"
        },
        {
            "inputs": [
                {
                    "internalType": "bytes32",
                    "name": "",
                    "type": "bytes32"
                }
            ],
            "name": "packages",
            "outputs": [
                {
                    "internalType": "string",
                    "name": "senderID",
                    "type": "string"
                },
                {
                    "internalType": "string",
                    "name": "recipientID",
                    "type": "string"
                },
                {
                    "internalType": "string",
                    "name": "aidType",
                    "type": "string"
                },
                {
                    "internalType": "bytes32",
                    "name": "hashData",
                    "type": "bytes32"
                },
                {
                    "internalType": "uint256",
                    "name": "timestamp",
                    "type": "uint256"
                }
            ],
            "stateMutability": "view",
            "type": "function"
        },
        {
            "inputs": [
                {
                    "internalType": "string",
                    "name": "senderID",
                    "type": "string"
                },
                {
                    "internalType": "string",
                    "name": "recipientID",
                    "type": "string"
                },
                {
                    "internalType": "string",
                    "name": "aidType",
                    "type": "string"
                },
                {
                    "internalType": "bytes32",
                    "name": "hashData",
                    "type": "bytes32"
                }
            ],
            "name": "storePackage",
            "outputs": [],
            "stateMutability": "nonpayable",
            "type": "function"
        },
        {
            "inputs": [
                {
                    "internalType": "bytes32",
                    "name": "hashData",
                    "type": "bytes32"
                }
            ],
            "name": "verifyPackage",
            "outputs": [
                {
                    "internalType": "bool",
                    "name": "",
                    "type": "bool"
                }
            ],
            "stateMutability": "view",
            "type": "function"
        }
    ],
    "bytecode": "0x6080604052348015600f57600080fd5b50610e2c8061001f6000396000f3fe608060405234801561001057600080fd5b506004361061004c5760003560e01c806356de1053146100515780637110281914610081578063ae46efab146100b5578063db98213d146100d1575b600080fd5b61006b600480360381019061006691906106df565b610104565b6040516100789190610727565b60405180910390f35b61009b600480360381019061009691906106df565b610126565b6040516100ac9594939291906107fa565b60405180910390f35b6100cf60048036038101906100ca9190610997565b6102f4565b005b6100eb60048036038101906100e691906106df565b610424565b6040516100fb9493929190610a52565b60405180910390f35b6000806000808481526020019081526020016000206004015414159050919050565b600060205280600052604060002060009150905080600001805461014990610adb565b80601f016020809104026020016040519081016040528092919081815260200182805461017590610adb565b80156101c25780601f10610197576101008083540402835291602001916101c2565b820191906000526020600020905b8154815290600101906020018083116101a557829003601f168201915b5050505050908060010180546101d790610adb565b80601f016020809104026020016040519081016040528092919081815260200182805461020390610adb565b80156102505780601f1061022557610100808354040283529160200191610250565b820191906000526020600020905b81548152906001019060200180831161023357829003601f168201915b50505050509080600201805461026590610adb565b80601f016020809104026020016040519081016040528092919081815260200182805461029190610adb565b80156102de5780601f106102b3576101008083540402835291602001916102de565b820191906000526020600020905b8154815290600101906020018083116102c157829003601f168201915b5050505050908060030154908060040154905085565b6000801b600080838152602001908152602001600020600301541461034e576040517f08c379a000000000000000000000000000000000000000000000000000000000815260040161034590610b58565b60405180910390fd5b6040518060a0016040528085815260200184815260200183815260200182815260200142815250600080838152602001908152602001600020600082015181600001908161039c9190610d24565b5060208201518160010190816103b29190610d24565b5060408201518160020190816103c89190610d24565b506060820151816003015560808201518160040155905050807f5afa685f031e5c41677fb7a53a2e088096839ce7afd17448cce76c137f0abe35858585426040516104169493929190610a52565b60405180910390a250505050565b606080606060008060001b600080878152602001908152602001600020600301540361048c576000604051806020016040528060008152509060405180602001604052806000815250906040518060200160405280600081525090935093509350935061068e565b600080868152602001908152602001600020600001600080878152602001908152602001600020600101600080888152602001908152602001600020600201600080898152602001908152602001600020600401548380546104ed90610adb565b80601f016020809104026020016040519081016040528092919081815260200182805461051990610adb565b80156105665780601f1061053b57610100808354040283529160200191610566565b820191906000526020600020905b81548152906001019060200180831161054957829003601f168201915b5050505050935082805461057990610adb565b80601f01602080910402602001604051908101604052809291908181526020018280546105a590610adb565b80156105f25780601f106105c7576101008083540402835291602001916105f2565b820191906000526020600020905b8154815290600101906020018083116105d557829003601f168201915b5050505050925081805461060590610adb565b80601f016020809104026020016040519081016040528092919081815260200182805461063190610adb565b801561067e5780601f106106535761010080835404028352916020019161067e565b820191906000526020600020905b81548152906001019060200180831161066157829003601f168201915b5050505050915093509350935093505b9193509193565b6000604051905090565b600080fd5b600080fd5b6000819050919050565b6106bc816106a9565b81146106c757600080fd5b50565b6000813590506106d9816106b3565b92915050565b6000602082840312156106f5576106f461069f565b5b6000610703848285016106ca565b91505092915050565b60008115159050919050565b6107218161070c565b82525050565b600060208201905061073c6000830184610718565b92915050565b600081519050919050565b600082825260208201905092915050565b60005b8381101561077c578082015181840152602081019050610761565b60008484015250505050565b6000601f19601f8301169050919050565b60006107a482610742565b6107ae818561074d565b93506107be81856020860161075e565b6107c781610788565b840191505092915050565b6107db816106a9565b82525050565b6000819050919050565b6107f4816107e1565b82525050565b600060a08201905081810360008301526108148188610799565b905081810360208301526108288187610799565b9050818103604083015261083c8186610799565b905061084b60608301856107d2565b61085860808301846107eb565b9695505050505050565b600080fd5b600080fd5b7f4e487b7100000000000000000000000000000000000000000000000000000000600052604160045260246000fd5b6108a482610788565b810181811067ffffffffffffffff821117156108c3576108c261086c565b5b80604052505050565b60006108d6610695565b90506108e2828261089b565b919050565b600067ffffffffffffffff8211156109025761090161086c565b5b61090b82610788565b9050602081019050919050565b82818337600083830152505050565b600061093a610935846108e7565b6108cc565b90508281526020810184848401111561095657610955610867565b5b610961848285610918565b509392505050565b600082601f83011261097e5761097d610862565b5b813561098e848260208601610927565b91505092915050565b600080600080608085870312156109b1576109b061069f565b5b600085013567ffffffffffffffff8111156109cf576109ce6106a4565b5b6109db87828801610969565b945050602085013567ffffffffffffffff8111156109fc576109fb6106a4565b5b610a0887828801610969565b935050604085013567ffffffffffffffff811115610a2957610a286106a4565b5b610a3587828801610969565b9250506060610a46878288016106ca565b91505092959194509250565b60006080820190508181036000830152610a6c8187610799565b90508181036020830152610a808186610799565b90508181036040830152610a948185610799565b9050610aa360608301846107eb565b95945050505050565b7f4e487b7100000000000000000000000000000000000000000000000000000000600052602260045260246000fd5b60006002820490506001821680610af357607f821691505b602082108103610b0657610b05610aac565b5b50919050565b7f5061636b61676520616c72656164792065786973747300000000000000000000600082015250565b6000610b4260168361074d565b9150610b4d82610b0c565b602082019050919050565b60006020820190508181036000830152610b7181610b35565b9050919050565b60008190508160005260206000209050919050565b60006020601f8301049050919050565b600082821b905092915050565b600060088302610bda7fffffffffffffffffffffffffffffffffffffffffffffffffffffffffffffffff82610b9d565b610be48683610b9d565b95508019841693508086168417925050509392505050565b6000819050919050565b6000610c21610c1c610c17846107e1565b610bfc565b6107e1565b9050919050565b6000819050919050565b610c3b83610c06565b610c4f610c4782610c28565b848454610baa565b825550505050565b600090565b610c64610c57565b610c6f818484610c32565b505050565b5b81811015610c9357610c88600082610c5c565b600181019050610c75565b5050565b601f821115610cd857610ca981610b78565b610cb284610b8d565b81016020851015610cc1578190505b610cd5610ccd85610b8d565b830182610c74565b50505b505050565b600082821c905092915050565b6000610cfb60001984600802610cdd565b1980831691505092915050565b6000610d148383610cea565b9150826002028217905092915050565b610d2d82610742565b67ffffffffffffffff811115610d4657610d4561086c565b5b610d508254610adb565b610d5b828285610c97565b600060209050601f831160018114610d8e5760008415610d7c578287015190505b610d868582610d08565b865550610dee565b601f198416610d9c86610b78565b60005b82811015610dc457848901518255600182019150602085019450602081019050610d9f565b86831015610de15784890151610ddd601f891682610cea565b8355505b6001600288020188555050505b50505050505056fea26469706673582212207eaa245c5b6c91a666fc820d92b1a65194a72ac9b15cddf60ca1863c25e9290264736f6c634300081c0033",
    "linkReferences": {},
    "deployedLinkReferences": {}
}